{
  "contractName": "RiskxTokenSale",
  "abi": [
    {
      "constant": true,
      "inputs": [],
      "name": "tokenContract",
      "outputs": [
        {
          "name": "",
          "type": "address"
        }
      ],
      "payable": false,
      "stateMutability": "view",
      "type": "function"
    },
    {
      "inputs": [
        {
          "name": "_tokenContract",
          "type": "address"
        }
      ],
      "payable": false,
      "stateMutability": "nonpayable",
      "type": "constructor"
    }
  ],
  "bytecode": "0x608060405234801561001057600080fd5b506040516020806101ad83398101806040528101908080519060200190929190505050336000806101000a81548173ffffffffffffffffffffffffffffffffffffffff021916908373ffffffffffffffffffffffffffffffffffffffff16021790555080600160006101000a81548173ffffffffffffffffffffffffffffffffffffffff021916908373ffffffffffffffffffffffffffffffffffffffff1602179055505060ea806100c36000396000f300608060405260043610603f576000357c0100000000000000000000000000000000000000000000000000000000900463ffffffff16806355a373d6146044575b600080fd5b348015604f57600080fd5b5060566098565b604051808273ffffffffffffffffffffffffffffffffffffffff1673ffffffffffffffffffffffffffffffffffffffff16815260200191505060405180910390f35b600160009054906101000a900473ffffffffffffffffffffffffffffffffffffffff16815600a165627a7a723058206e4ae268f17e22069561787727b47ca00abb38678fbdf61e66a19971679aabcf0029",
  "source": "pragma solidity ^0.4.23;\n\nimport \"./RiskxToken.sol\";\n\ncontract RiskxTokenSale {\n\taddress admin;\n\tRiskxToken public tokenContract;\n\n\tfunction RiskxTokenSale(RiskxToken _tokenContract) public {\n\t\tadmin = msg.sender;\n\t\ttokenContract = _tokenContract; \n\t\t// Token contract\n\t\t// Token Price\n\t}\n}",
  "sourcePath": "/Users/zanemassey/Desktop/riskxtoken/contracts/RiskxTokenSale.sol",
  "compiler": {
    "name": "solc",
    "version": "0.4.24+commit.e67f0147.Emscripten.clang"
  },
  "schemaVersion": "2.0.1",
  "updatedAt": "2018-07-27T08:24:22.161Z"
}