{
  "contractName": "RiskxToken",
  "abi": [
    {
      "constant": true,
      "inputs": [],
      "name": "totalSupply",
      "outputs": [
        {
          "name": "",
          "type": "uint256"
        }
      ],
      "payable": false,
      "stateMutability": "view",
      "type": "function"
    },
    {
      "inputs": [],
      "payable": false,
      "stateMutability": "nonpayable",
      "type": "constructor"
    }
  ],
  "bytecode": "0x608060405234801561001057600080fd5b506323c34600600081905550609e8061002a6000396000f300608060405260043610603f576000357c0100000000000000000000000000000000000000000000000000000000900463ffffffff16806318160ddd146044575b600080fd5b348015604f57600080fd5b506056606c565b6040518082815260200191505060405180910390f35b600054815600a165627a7a72305820871461e044ff9bd5f12c507eaf1a2a348b96bf08b81abdfd89be7caa14a5c4e60029",
  "source": "pragma solidity ^0.4.23;\n\ncontract RiskxToken {\n\t// constructor\n\t// set tokens total supply\n\t// read tje total number of tokens\n\t\n\tuint256 public totalSupply;\n\n\tfunction RiskxToken () public {\n\t\ttotalSupply = 600000000;\n\t}\n}",
  "sourcePath": "/Users/zanemassey/Desktop/riskxtoken/contracts/RiskxToken.sol",
  "compiler": {
    "name": "solc",
    "version": "0.4.24+commit.e67f0147.Emscripten.clang"
  },
  "schemaVersion": "2.0.1",
  "updatedAt": "2018-07-26T04:27:06.930Z"
}